{
  "contractName": "SimpleAuction",
  "abi": [
    {
      "inputs": [
        {
          "internalType": "uint256",
          "name": "_biddingTime",
          "type": "uint256"
        }
      ],
      "payable": false,
      "stateMutability": "nonpayable",
      "type": "constructor"
    },
    {
      "anonymous": false,
      "inputs": [
        {
          "indexed": false,
          "internalType": "address",
          "name": "winner",
          "type": "address"
        },
        {
          "indexed": false,
          "internalType": "uint256",
          "name": "amount",
          "type": "uint256"
        }
      ],
      "name": "AuctionEnded",
      "type": "event"
    },
    {
      "anonymous": false,
      "inputs": [
        {
          "indexed": false,
          "internalType": "address",
          "name": "bidder",
          "type": "address"
        },
        {
          "indexed": false,
          "internalType": "uint256",
          "name": "amount",
          "type": "uint256"
        }
      ],
      "name": "HighestBidIncreased",
      "type": "event"
    },
    {
      "constant": true,
      "inputs": [],
      "name": "auctionEnd",
      "outputs": [
        {
          "internalType": "uint256",
          "name": "",
          "type": "uint256"
        }
      ],
      "payable": false,
      "stateMutability": "view",
      "type": "function"
    },
    {
      "constant": true,
      "inputs": [],
      "name": "highestBid",
      "outputs": [
        {
          "internalType": "uint256",
          "name": "",
          "type": "uint256"
        }
      ],
      "payable": false,
      "stateMutability": "view",
      "type": "function"
    },
    {
      "constant": true,
      "inputs": [],
      "name": "highestBidder",
      "outputs": [
        {
          "internalType": "address",
          "name": "",
          "type": "address"
        }
      ],
      "payable": false,
      "stateMutability": "view",
      "type": "function"
    },
    {
      "constant": false,
      "inputs": [],
      "name": "bid",
      "outputs": [],
      "payable": true,
      "stateMutability": "payable",
      "type": "function"
    },
    {
      "constant": false,
      "inputs": [],
      "name": "withdraw",
      "outputs": [
        {
          "internalType": "bool",
          "name": "",
          "type": "bool"
        }
      ],
      "payable": false,
      "stateMutability": "nonpayable",
      "type": "function"
    }
  ],
  "bytecode": "0x608060405234801561001057600080fd5b5060405161053d38038061053d8339818101604052602081101561003357600080fd5b8101908080519060200190929190505050804201600081905550506104e08061005d6000396000f3fe60806040526004361061004a5760003560e01c80631998aeef1461004f5780632a24f46c146100595780633ccfd60b1461008457806391f90157146100b3578063d57bde791461010a575b600080fd5b610057610135565b005b34801561006557600080fd5b5061006e610355565b6040518082815260200191505060405180910390f35b34801561009057600080fd5b5061009961035b565b604051808215151515815260200191505060405180910390f35b3480156100bf57600080fd5b506100c861047f565b604051808273ffffffffffffffffffffffffffffffffffffffff1673ffffffffffffffffffffffffffffffffffffffff16815260200191505060405180910390f35b34801561011657600080fd5b5061011f6104a5565b6040518082815260200191505060405180910390f35b6000544211156101ad576040517f08c379a00000000000000000000000000000000000000000000000000000000081526004018080602001828103825260168152602001807f41756374696f6e20616c726561647920656e6465642e0000000000000000000081525060200191505060405180910390fd5b6002543411610224576040517f08c379a000000000000000000000000000000000000000000000000000000000815260040180806020018281038252601e8152602001807f546865726520616c7265616479206973206120686967686572206269642e000081525060200191505060405180910390fd5b6000600254146102a05760025460036000600160009054906101000a900473ffffffffffffffffffffffffffffffffffffffff1673ffffffffffffffffffffffffffffffffffffffff1673ffffffffffffffffffffffffffffffffffffffff168152602001908152602001600020600082825401925050819055505b33600160006101000a81548173ffffffffffffffffffffffffffffffffffffffff021916908373ffffffffffffffffffffffffffffffffffffffff160217905550346002819055507ff4757a49b326036464bec6fe419a4ae38c8a02ce3e68bf0809674f6aab8ad3003334604051808373ffffffffffffffffffffffffffffffffffffffff1673ffffffffffffffffffffffffffffffffffffffff1681526020018281526020019250505060405180910390a1565b60005481565b600080600360003373ffffffffffffffffffffffffffffffffffffffff1673ffffffffffffffffffffffffffffffffffffffff1681526020019081526020016000205490506000811115610476576000600360003373ffffffffffffffffffffffffffffffffffffffff1673ffffffffffffffffffffffffffffffffffffffff168152602001908152602001600020819055503373ffffffffffffffffffffffffffffffffffffffff166108fc829081150290604051600060405180830381858888f193505050506104755780600360003373ffffffffffffffffffffffffffffffffffffffff1673ffffffffffffffffffffffffffffffffffffffff16815260200190815260200160002081905550600091505061047c565b5b60019150505b90565b600160009054906101000a900473ffffffffffffffffffffffffffffffffffffffff1681565b6002548156fea265627a7a723158207694e81a24b78975c736d7236972f1e7279b8c75997db19a26ffce8f637bdc0764736f6c63430005100032",
  "source": "// SPDX-License-Identifier: MIT\npragma solidity >=0.4.21 <0.7.0;\n\n// 0x7EF2e0048f5bAeDe046f6BF797943daF4ED8CB47\n\ncontract SimpleAuction {\n    // 时间是unix的绝对时间戳（自1970-01-01以来的秒数）\n    // 或以秒为单位的时间段。\n    uint256 public auctionEnd;\n\n    // 拍卖的当前状态\n    address public highestBidder;\n    uint256 public highestBid;\n\n    //可以取回的之前的出价\n    mapping(address => uint256) pendingReturns;\n\n    // 拍卖结束后设为 true，将禁止所有的变更\n    bool ended;\n\n    // 变更触发的事件\n    event HighestBidIncreased(address bidder, uint256 amount);\n    event AuctionEnded(address winner, uint256 amount);\n\n    // 以下是所谓的 natspec 注释，可以通过三个斜杠来识别。\n    // 当用户被要求确认交易时将显示。\n\n    /// 以受益者地址 `_beneficiary` 的名义，\n    /// 创建一个简单的拍卖，拍卖时间为 `_biddingTime` 秒。\n    constructor(uint256 _biddingTime) public {\n        auctionEnd = now + _biddingTime;\n    }\n\n    /// 对拍卖进行出价，具体的出价随交易一起发送。\n    /// 如果没有在拍卖中胜出，则返还出价。\n    function bid() public payable {\n        // 参数不是必要的。因为所有的信息已经包含在了交易中。\n        // 对于能接收以太币的函数，关键字 payable 是必须的。\n\n        // 如果拍卖已结束，撤销函数的调用。\n        require(now <= auctionEnd, \"Auction already ended.\");\n\n        // 如果出价不够高，返还你的钱\n        require(msg.value > highestBid, \"There already is a higher bid.\");\n\n        if (highestBid != 0) {\n            // 返还出价时，简单地直接调用 highestBidder.send(highestBid) 函数，\n            // 是有安全风险的，因为它有可能执行一个非信任合约。\n            // 更为安全的做法是让接收方自己提取金钱。\n            pendingReturns[highestBidder] += highestBid;\n        }\n        highestBidder = msg.sender;\n        highestBid = msg.value;\n        emit HighestBidIncreased(msg.sender, msg.value);\n    }\n\n    /// 取回出价（当该出价已被超越）\n    function withdraw() public returns (bool) {\n        uint256 amount = pendingReturns[msg.sender];\n        if (amount > 0) {\n            // 这里很重要，首先要设零值。\n            // 因为，作为接收调用的一部分，\n            // 接收者可以在 `send` 返回之前，重新调用该函数。\n            pendingReturns[msg.sender] = 0;\n\n            if (!msg.sender.send(amount)) {\n                // 这里不需抛出异常，只需重置未付款\n                pendingReturns[msg.sender] = amount;\n                return false;\n            }\n        }\n        return true;\n    }\n}\n",
  "sourcePath": "/Users/xiangzhengfeng/Desktop/file/qianduanxinlv/truffle-demo/contracts/SimpleAuction.sol",
  "compiler": {
    "name": "solc",
    "version": "0.5.16+commit.9c3226ce.Emscripten.clang"
  },
  "schemaVersion": "3.3.4",
  "updatedAt": "2021-03-23T05:43:00.524Z",
  "networkType": "ethereum",
  "devdoc": {
    "methods": {}
  },
  "userdoc": {
    "methods": {
      "bid()": {
        "notice": "对拍卖进行出价，具体的出价随交易一起发送。 如果没有在拍卖中胜出，则返还出价。"
      },
      "constructor": "以受益者地址 `_beneficiary` 的名义， 创建一个简单的拍卖，拍卖时间为 `_biddingTime` 秒。",
      "withdraw()": {
        "notice": "取回出价（当该出价已被超越）"
      }
    }
  }
}