{
  "contractName": "Todolist",
  "abi": [
    {
      "anonymous": false,
      "inputs": [
        {
          "indexed": false,
          "internalType": "uint256",
          "name": "id",
          "type": "uint256"
        },
        {
          "indexed": false,
          "internalType": "uint256",
          "name": "time",
          "type": "uint256"
        },
        {
          "indexed": false,
          "internalType": "uint256",
          "name": "content",
          "type": "uint256"
        },
        {
          "indexed": false,
          "internalType": "address",
          "name": "writer",
          "type": "address"
        },
        {
          "indexed": false,
          "internalType": "string",
          "name": "types",
          "type": "string"
        }
      ],
      "name": "HandleList",
      "type": "event"
    },
    {
      "constant": true,
      "inputs": [
        {
          "internalType": "uint256",
          "name": "",
          "type": "uint256"
        }
      ],
      "name": "lists",
      "outputs": [
        {
          "internalType": "uint256",
          "name": "id",
          "type": "uint256"
        },
        {
          "internalType": "uint256",
          "name": "time",
          "type": "uint256"
        },
        {
          "internalType": "uint256",
          "name": "content",
          "type": "uint256"
        },
        {
          "internalType": "address",
          "name": "writer",
          "type": "address"
        },
        {
          "internalType": "bool",
          "name": "isDone",
          "type": "bool"
        }
      ],
      "payable": false,
      "stateMutability": "view",
      "type": "function"
    },
    {
      "constant": false,
      "inputs": [
        {
          "internalType": "uint256",
          "name": "content",
          "type": "uint256"
        }
      ],
      "name": "add",
      "outputs": [],
      "payable": false,
      "stateMutability": "nonpayable",
      "type": "function"
    },
    {
      "constant": true,
      "inputs": [],
      "name": "getLength",
      "outputs": [
        {
          "internalType": "uint256",
          "name": "",
          "type": "uint256"
        }
      ],
      "payable": false,
      "stateMutability": "view",
      "type": "function"
    },
    {
      "constant": false,
      "inputs": [
        {
          "internalType": "uint256",
          "name": "id",
          "type": "uint256"
        }
      ],
      "name": "done",
      "outputs": [],
      "payable": false,
      "stateMutability": "nonpayable",
      "type": "function"
    },
    {
      "constant": false,
      "inputs": [
        {
          "internalType": "uint256",
          "name": "id",
          "type": "uint256"
        }
      ],
      "name": "remove",
      "outputs": [],
      "payable": false,
      "stateMutability": "nonpayable",
      "type": "function"
    }
  ],
  "bytecode": "0x608060405234801561001057600080fd5b506109a6806100206000396000f3fe608060405234801561001057600080fd5b50600436106100575760003560e01c80631003e2d21461005c5780634cc822151461008a57806358a743c7146100b857806396102cf4146100e6578063be1c766b14610174575b600080fd5b6100886004803603602081101561007257600080fd5b8101908080359060200190929190505050610192565b005b6100b6600480360360208110156100a057600080fd5b810190808035906020019092919050505061047d565b005b6100e4600480360360208110156100ce57600080fd5b81019080803590602001909291905050506106e6565b005b610112600480360360208110156100fc57600080fd5b81019080803590602001909291905050506108f4565b604051808681526020018581526020018481526020018373ffffffffffffffffffffffffffffffffffffffff1673ffffffffffffffffffffffffffffffffffffffff168152602001821515151581526020019550505050505060405180910390f35b61017c610964565b6040518082815260200191505060405180910390f35b7fc055ed456dc516623f85cd312700fbece12bb6914606896868df419b1d22e502600054428333604051808581526020018481526020018381526020018273ffffffffffffffffffffffffffffffffffffffff1673ffffffffffffffffffffffffffffffffffffffff16815260200180602001828103825260038152602001807f61646400000000000000000000000000000000000000000000000000000000008152506020019550505050505060405180910390a160018054905060005414156103645760016040518060a0016040528060005481526020014281526020018381526020013373ffffffffffffffffffffffffffffffffffffffff168152602001600015158152509080600181540180825580915050906001820390600052602060002090600402016000909192909190915060008201518160000155602082015181600101556040820151816002015560608201518160030160006101000a81548173ffffffffffffffffffffffffffffffffffffffff021916908373ffffffffffffffffffffffffffffffffffffffff16021790555060808201518160030160146101000a81548160ff021916908315150217905550505050600080815480929190600101919050555061047a565b60005460016000548154811061037657fe5b9060005260206000209060040201600001819055504260016000548154811061039b57fe5b906000526020600020906004020160010181905550806001600054815481106103c057fe5b906000526020600020906004020160020181905550336001600054815481106103e557fe5b906000526020600020906004020160030160006101000a81548173ffffffffffffffffffffffffffffffffffffffff021916908373ffffffffffffffffffffffffffffffffffffffff160217905550600060016000548154811061044557fe5b906000526020600020906004020160030160146101000a81548160ff0219169083151502179055506001805490506000819055505b50565b806001805490508111156104f9576040517f08c379a000000000000000000000000000000000000000000000000000000000815260040180806020018281038252600a8152602001807f6964206e6f2066756e640000000000000000000000000000000000000000000081525060200191505060405180910390fd5b6000811015610570576040517f08c379a000000000000000000000000000000000000000000000000000000000815260040180806020018281038252600a8152602001807f6964206e6f2066756e640000000000000000000000000000000000000000000081525060200191505060405180910390fd5b60006001838154811061057f57fe5b90600052602060002090600402019050600115158160030160149054906101000a900460ff161515146105b157600080fd5b7fc055ed456dc516623f85cd312700fbece12bb6914606896868df419b1d22e5028342836002015433604051808581526020018481526020018381526020018273ffffffffffffffffffffffffffffffffffffffff1673ffffffffffffffffffffffffffffffffffffffff16815260200180602001828103825260068152602001807f72656d6f766500000000000000000000000000000000000000000000000000008152506020019550505050505060405180910390a16001838154811061067657fe5b9060005260206000209060040201600080820160009055600182016000905560028201600090556003820160006101000a81549073ffffffffffffffffffffffffffffffffffffffff02191690556003820160146101000a81549060ff0219169055505082600081905550505050565b80600180549050811115610762576040517f08c379a000000000000000000000000000000000000000000000000000000000815260040180806020018281038252600a8152602001807f6964206e6f2066756e640000000000000000000000000000000000000000000081525060200191505060405180910390fd5b60008110156107d9576040517f08c379a000000000000000000000000000000000000000000000000000000000815260040180806020018281038252600a8152602001807f6964206e6f2066756e640000000000000000000000000000000000000000000081525060200191505060405180910390fd5b6000600183815481106107e857fe5b90600052602060002090600402019050600015158160030160149054906101000a900460ff1615151461081a57600080fd5b60018160030160146101000a81548160ff0219169083151502179055507fc055ed456dc516623f85cd312700fbece12bb6914606896868df419b1d22e5028342836002015433604051808581526020018481526020018381526020018273ffffffffffffffffffffffffffffffffffffffff1673ffffffffffffffffffffffffffffffffffffffff16815260200180602001828103825260048152602001807f646f6e65000000000000000000000000000000000000000000000000000000008152506020019550505050505060405180910390a1505050565b6001818154811061090157fe5b90600052602060002090600402016000915090508060000154908060010154908060020154908060030160009054906101000a900473ffffffffffffffffffffffffffffffffffffffff16908060030160149054906101000a900460ff16905085565b600060018054905090509056fea265627a7a72315820335547595aecbc824ee9142ec7fa71185529df470a3605af744c2a4c257926b464736f6c63430005100032",
  "source": "// SPDX-License-Identifier: GPL-3.0\npragma solidity >=0.4.22 <0.9.0;\n\ncontract Todolist {\n    uint256 index;\n\n    struct List {\n        uint256 id; // id\n        uint256 time; // 时间\n        uint256 content; // 内容\n        address writer; // 写入者\n        bool isDone; // 是否完成\n    }\n\n    List[] public lists;\n\n    event HandleList(\n        uint256 id,\n        uint256 time,\n        uint256 content,\n        address writer,\n        string types\n    );\n\n    modifier LegalId(uint256 id) {\n        require(id <= lists.length, \"id no fund\");\n        require(id >= 0, \"id no fund\");\n        _;\n    }\n\n    function add(uint256 content) public {\n        emit HandleList(index, block.timestamp, content, msg.sender, \"add\");\n        if (index == lists.length) {\n            lists.push(\n                List(index, block.timestamp, content, msg.sender, false)\n            );\n            index++;\n        } else {\n            lists[index].id = index;\n            lists[index].time = block.timestamp;\n            lists[index].content = content;\n            lists[index].writer = msg.sender;\n            lists[index].isDone = false;\n\n            index = lists.length;\n        }\n    }\n\n    function getLength() public view returns (uint256) {\n        return lists.length;\n    }\n\n    function done(uint256 id) public LegalId(id) {\n        List storage list = lists[id];\n        require(list.isDone == false);\n        list.isDone = true;\n        emit HandleList(id, block.timestamp, list.content, msg.sender, \"done\");\n    }\n\n    function remove(uint256 id) public LegalId(id) {\n        List storage list = lists[id];\n        require(list.isDone == true);\n        emit HandleList(\n            id,\n            block.timestamp,\n            list.content,\n            msg.sender,\n            \"remove\"\n        );\n        delete lists[id];\n        index = id;\n    }\n}\n",
  "sourcePath": "/Users/xiangzhengfeng/Desktop/file/qianduanxinlv/truffle-demo/contracts/Todolist.sol",
  "compiler": {
    "name": "solc",
    "version": "0.5.16+commit.9c3226ce.Emscripten.clang"
  },
  "schemaVersion": "3.3.4",
  "updatedAt": "2021-03-24T09:27:08.051Z",
  "networkType": "ethereum",
  "devdoc": {
    "methods": {}
  },
  "userdoc": {
    "methods": {}
  }
}